{
  "contractName": "CredentialBox",
  "abi": [
    {
      "inputs": [],
      "stateMutability": "nonpayable",
      "type": "constructor"
    },
    {
      "inputs": [
        {
          "internalType": "address",
          "name": "_alumniAddress",
          "type": "address"
        },
        {
          "internalType": "uint8",
          "name": "_alumniType",
          "type": "uint8"
        },
        {
          "internalType": "string",
          "name": "_value",
          "type": "string"
        }
      ],
      "name": "claimCredential",
      "outputs": [
        {
          "internalType": "bool",
          "name": "",
          "type": "bool"
        }
      ],
      "stateMutability": "nonpayable",
      "type": "function"
    },
    {
      "inputs": [
        {
          "internalType": "address",
          "name": "_alumniAddress",
          "type": "address"
        }
      ],
      "name": "getCredential",
      "outputs": [
        {
          "components": [
            {
              "internalType": "uint256",
              "name": "id",
              "type": "uint256"
            },
            {
              "internalType": "address",
              "name": "issuer",
              "type": "address"
            },
            {
              "internalType": "uint8",
              "name": "alumniType",
              "type": "uint8"
            },
            {
              "internalType": "string",
              "name": "value",
              "type": "string"
            }
          ],
          "internalType": "struct CredentialBox.Credential",
          "name": "",
          "type": "tuple"
        }
      ],
      "stateMutability": "view",
      "type": "function",
      "constant": true
    }
  ],
  "bytecode": "0x608060405234801561001057600080fd5b50336000806101000a81548173ffffffffffffffffffffffffffffffffffffffff021916908373ffffffffffffffffffffffffffffffffffffffff1602179055506001600060146101000a81548160ff021916908360ff1602179055506040518060400160405280600381526020017f5345420000000000000000000000000000000000000000000000000000000000815250600160008060ff16815260200190815260200160002090805190602001906100cc929190610194565b506040518060400160405280600381526020017f424542000000000000000000000000000000000000000000000000000000000081525060016000600160ff168152602001908152602001600020908051906020019061012d929190610194565b506040518060400160405280600381526020017f414942000000000000000000000000000000000000000000000000000000000081525060016000600260ff168152602001908152602001600020908051906020019061018e929190610194565b50610297565b8280546101a090610266565b90600052602060002090601f0160209004810192826101c25760008555610209565b82601f106101db57805160ff1916838001178555610209565b82800160010185558215610209579182015b828111156102085782518255916020019190600101906101ed565b5b509050610216919061021a565b5090565b5b8082111561023357600081600090555060010161021b565b5090565b7f4e487b7100000000000000000000000000000000000000000000000000000000600052602260045260246000fd5b6000600282049050600182168061027e57607f821691505b60208210810361029157610290610237565b5b50919050565b610949806102a66000396000f3fe608060405234801561001057600080fd5b50600436106100365760003560e01c8063617ae3641461003b578063ccdad14b1461006b575b600080fd5b610055600480360381019061005091906105a4565b61009b565b6040516100629190610633565b60405180910390f35b6100856004803603810190610080919061064e565b610252565b60405161009291906107ae565b60405180910390f35b60003373ffffffffffffffffffffffffffffffffffffffff1660008054906101000a900473ffffffffffffffffffffffffffffffffffffffff1673ffffffffffffffffffffffffffffffffffffffff161461012b576040517f08c379a00000000000000000000000000000000000000000000000000000000081526004016101229061082d565b60405180910390fd5b6000600260008773ffffffffffffffffffffffffffffffffffffffff1673ffffffffffffffffffffffffffffffffffffffff1681526020019081526020016000209050600081600001541461017f57600080fd5b600060149054906101000a900460ff1660ff168160000181905550338160010160006101000a81548173ffffffffffffffffffffffffffffffffffffffff021916908373ffffffffffffffffffffffffffffffffffffffff160217905550848160010160146101000a81548160ff021916908360ff160217905550838382600201919061020d9291906103ba565b506001600060148282829054906101000a900460ff1661022d919061087c565b92506101000a81548160ff021916908360ff1602179055506001915050949350505050565b61025a610440565b600260008373ffffffffffffffffffffffffffffffffffffffff1673ffffffffffffffffffffffffffffffffffffffff168152602001908152602001600020604051806080016040529081600082015481526020016001820160009054906101000a900473ffffffffffffffffffffffffffffffffffffffff1673ffffffffffffffffffffffffffffffffffffffff1673ffffffffffffffffffffffffffffffffffffffff1681526020016001820160149054906101000a900460ff1660ff1660ff168152602001600282018054610331906108e2565b80601f016020809104026020016040519081016040528092919081815260200182805461035d906108e2565b80156103aa5780601f1061037f576101008083540402835291602001916103aa565b820191906000526020600020905b81548152906001019060200180831161038d57829003601f168201915b5050505050815250509050919050565b8280546103c6906108e2565b90600052602060002090601f0160209004810192826103e8576000855561042f565b82601f1061040157803560ff191683800117855561042f565b8280016001018555821561042f579182015b8281111561042e578235825591602001919060010190610413565b5b50905061043c9190610481565b5090565b604051806080016040528060008152602001600073ffffffffffffffffffffffffffffffffffffffff168152602001600060ff168152602001606081525090565b5b8082111561049a576000816000905550600101610482565b5090565b600080fd5b600080fd5b600073ffffffffffffffffffffffffffffffffffffffff82169050919050565b60006104d3826104a8565b9050919050565b6104e3816104c8565b81146104ee57600080fd5b50565b600081359050610500816104da565b92915050565b600060ff82169050919050565b61051c81610506565b811461052757600080fd5b50565b60008135905061053981610513565b92915050565b600080fd5b600080fd5b600080fd5b60008083601f8401126105645761056361053f565b5b8235905067ffffffffffffffff81111561058157610580610544565b5b60208301915083600182028301111561059d5761059c610549565b5b9250929050565b600080600080606085870312156105be576105bd61049e565b5b60006105cc878288016104f1565b94505060206105dd8782880161052a565b935050604085013567ffffffffffffffff8111156105fe576105fd6104a3565b5b61060a8782880161054e565b925092505092959194509250565b60008115159050919050565b61062d81610618565b82525050565b60006020820190506106486000830184610624565b92915050565b6000602082840312156106645761066361049e565b5b6000610672848285016104f1565b91505092915050565b6000819050919050565b61068e8161067b565b82525050565b61069d816104c8565b82525050565b6106ac81610506565b82525050565b600081519050919050565b600082825260208201905092915050565b60005b838110156106ec5780820151818401526020810190506106d1565b838111156106fb576000848401525b50505050565b6000601f19601f8301169050919050565b600061071d826106b2565b61072781856106bd565b93506107378185602086016106ce565b61074081610701565b840191505092915050565b60006080830160008301516107636000860182610685565b5060208301516107766020860182610694565b50604083015161078960408601826106a3565b50606083015184820360608601526107a18282610712565b9150508091505092915050565b600060208201905081810360008301526107c8818461074b565b905092915050565b600082825260208201905092915050565b7f4e6f742049737375657200000000000000000000000000000000000000000000600082015250565b6000610817600a836107d0565b9150610822826107e1565b602082019050919050565b600060208201905081810360008301526108468161080a565b9050919050565b7f4e487b7100000000000000000000000000000000000000000000000000000000600052601160045260246000fd5b600061088782610506565b915061089283610506565b92508260ff038211156108a8576108a761084d565b5b828201905092915050565b7f4e487b7100000000000000000000000000000000000000000000000000000000600052602260045260246000fd5b600060028204905060018216806108fa57607f821691505b60208210810361090d5761090c6108b3565b5b5091905056fea2646970667358221220cbe8cad06171695287fa105b418ff94d16125a56c51d19d379065c0aafcffd7564736f6c634300080e0033",
  "immutableReferences": {},
  "source": "// SPDX-License-Identifier: GLP-3.0\npragma solidity 0.8.14;\n\ncontract CredentialBox {\n  address private issuerAddress;\n  uint8 private idCount;\n  mapping(uint8 => string) private alumniEnum;\n\n  struct Credential {\n    uint256 id;\n    address issuer;\n    uint8 alumniType;\n    string value;\n  }\n\n  mapping(address => Credential) private credentials;\n\n  constructor() {\n    issuerAddress = msg.sender;\n    idCount = 1;\n    alumniEnum[0] = \"SEB\";\n    alumniEnum[1] = \"BEB\";\n    alumniEnum[2] = \"AIB\";\n  }\n\n  function claimCredential(\n    address _alumniAddress,\n    uint8 _alumniType,\n    string calldata _value\n  ) public returns (bool) {\n    require(issuerAddress == msg.sender, \"Not Issuer\");\n    Credential storage credential = credentials[_alumniAddress];\n    require(credential.id == 0);\n    credential.id = idCount;\n    credential.issuer = msg.sender;\n    credential.alumniType = _alumniType;\n    credential.value = _value;\n\n    idCount += 1;\n\n    return true;\n  }\n\n  function getCredential(address _alumniAddress)\n    public\n    view\n    returns (Credential memory)\n  {\n    return credentials[_alumniAddress];\n  }\n}\n",
  "sourcePath": "/Users/sunghyun/Desktop/BlockChain/MakeDID/contracts/CredentialBox.sol",
  "compiler": {
    "name": "solc",
    "version": "0.8.14+commit.80d49f37.Emscripten.clang"
  },
  "schemaVersion": "3.4.7",
  "updatedAt": "2022-05-27T14:49:43.035Z",
  "networkType": "ethereum",
  "devdoc": {
    "kind": "dev",
    "methods": {},
    "version": 1
  },
  "userdoc": {
    "kind": "user",
    "methods": {},
    "version": 1
  }
}